:100000000C944C000C9456000C9456000C94560022
:100010000C9456000C9456000C9456000C94560008
:100020000C9456000C9456000C9456000C945600F8
:100030000C9456000C9456000C9456000C945600E8
:100040000C9456000C9456000C9456000C945600D8
:100050000C9456000C9456000C9456000C945600C8
:100060000C9456000C9456000C9456000C945600B8
:100070000C9456000C9456000C9456000C945600A8
:100080000C9456000C9456000C9456000C94560098
:100090000C9456000C94560011241FBECFEFD0E2F2
:1000A000DEBFCDBF0E946A000C949E000C9400003D
:1000B00011C000000000000000000000000000006F
:1000C0000000000000000000000000000000000030
:1000D000000023C000E200935E000FEF00935D007C
:1000E0000DB500680DBD0EB50F770EBD01B50360EF
:1000F00001BD02B50D7F02BD00E0009380000DE060
:100100000093810008EE0093880003E000938900CB
:1001100002E000936F007894FFCF0F930FB70F9317
:100120001F9312B5116012BD0000000012B51E7FB2
:1001300012BD1F910F910FBF0F911895F894FFCF2B
:00000001FF
